{
  "contractName": "PropertyMarketplace",
  "abi": [
    {
      "inputs": [
        {
          "internalType": "uint256",
          "name": "_platformCommissionPercentage",
          "type": "uint256"
        }
      ],
      "stateMutability": "nonpayable",
      "type": "constructor"
    },
    {
      "anonymous": false,
      "inputs": [
        {
          "indexed": false,
          "internalType": "uint256",
          "name": "totalOwnedPropiedad",
          "type": "uint256"
        }
      ],
      "name": "PropertieCountUpdated",
      "type": "event"
    },
    {
      "anonymous": false,
      "inputs": [
        {
          "indexed": true,
          "internalType": "bytes32",
          "name": "propertyHash",
          "type": "bytes32"
        },
        {
          "indexed": false,
          "internalType": "uint256",
          "name": "id",
          "type": "uint256"
        },
        {
          "indexed": false,
          "internalType": "uint256",
          "name": "price",
          "type": "uint256"
        },
        {
          "indexed": false,
          "internalType": "bytes32",
          "name": "proof",
          "type": "bytes32"
        },
        {
          "indexed": false,
          "internalType": "address",
          "name": "owner",
          "type": "address"
        }
      ],
      "name": "PropertieCreated",
      "type": "event"
    },
    {
      "anonymous": false,
      "inputs": [
        {
          "indexed": true,
          "internalType": "bytes32",
          "name": "propertyHash",
          "type": "bytes32"
        },
        {
          "indexed": false,
          "internalType": "uint256",
          "name": "id",
          "type": "uint256"
        },
        {
          "indexed": false,
          "internalType": "uint256",
          "name": "price",
          "type": "uint256"
        },
        {
          "indexed": false,
          "internalType": "address",
          "name": "owner",
          "type": "address"
        }
      ],
      "name": "PropertiePurchased",
      "type": "event"
    },
    {
      "inputs": [],
      "name": "platformCommissionPercentage",
      "outputs": [
        {
          "internalType": "uint256",
          "name": "",
          "type": "uint256"
        }
      ],
      "stateMutability": "view",
      "type": "function"
    },
    {
      "inputs": [
        {
          "internalType": "uint256",
          "name": "price",
          "type": "uint256"
        },
        {
          "internalType": "bytes32",
          "name": "proof",
          "type": "bytes32"
        }
      ],
      "name": "createProperty",
      "outputs": [
        {
          "internalType": "bytes32",
          "name": "",
          "type": "bytes32"
        }
      ],
      "stateMutability": "nonpayable",
      "type": "function"
    },
    {
      "inputs": [
        {
          "internalType": "bytes32",
          "name": "propertyHash",
          "type": "bytes32"
        }
      ],
      "name": "comprarPropiedad",
      "outputs": [],
      "stateMutability": "payable",
      "type": "function"
    },
    {
      "inputs": [],
      "name": "getPropertieCount",
      "outputs": [
        {
          "internalType": "uint256",
          "name": "",
          "type": "uint256"
        }
      ],
      "stateMutability": "view",
      "type": "function"
    },
    {
      "inputs": [
        {
          "internalType": "uint256",
          "name": "index",
          "type": "uint256"
        }
      ],
      "name": "getPropertieHashAtIndex",
      "outputs": [
        {
          "internalType": "bytes32",
          "name": "",
          "type": "bytes32"
        }
      ],
      "stateMutability": "view",
      "type": "function"
    },
    {
      "inputs": [
        {
          "internalType": "bytes32",
          "name": "propertyHash",
          "type": "bytes32"
        }
      ],
      "name": "getPropertieByHash",
      "outputs": [
        {
          "components": [
            {
              "internalType": "uint256",
              "name": "id",
              "type": "uint256"
            },
            {
              "internalType": "uint256",
              "name": "price",
              "type": "uint256"
            },
            {
              "internalType": "bytes32",
              "name": "proof",
              "type": "bytes32"
            },
            {
              "internalType": "address",
              "name": "owner",
              "type": "address"
            }
          ],
          "internalType": "struct PropertyMarketplace.Propertie",
          "name": "",
          "type": "tuple"
        }
      ],
      "stateMutability": "view",
      "type": "function"
    }
  ],
  "bytecode": "0x608060405234801561001057600080fd5b5060405161060438038061060483398101604081905261002f91610049565b600380546001600160a01b03191633179055600455610061565b60006020828403121561005a578081fd5b5051919050565b610594806100706000396000f3fe6080604052600436106100555760003560e01c80636339ea231461005a5780638450f0121461009a57806392303e06146100af57806397abe868146100c5578063bad9abc61461018c578063cf249fb0146101a1575b600080fd5b34801561006657600080fd5b5061008761007536600461049e565b60009081526001602052604090205490565b6040519081526020015b60405180910390f35b3480156100a657600080fd5b50600254610087565b3480156100bb57600080fd5b5061008760045481565b3480156100d157600080fd5b506101506100e036600461049e565b60408051608081018252600080825260208201819052918101829052606081019190915250600090815260208181526040918290208251608081018452815481526001820154928101929092526002810154928201929092526003909101546001600160a01b0316606082015290565b60405161009191908151815260208083015190820152604080830151908201526060918201516001600160a01b03169181019190915260800190565b61019f61019a36600461049e565b6101c1565b005b3480156101ad57600080fd5b506100876101bc3660046104b6565b61033a565b600081815260208190526040902060018101543410156102375760405162461bcd60e51b815260206004820152602760248201527f496e73756666696369656e742066756e647320746f2070757263686173652070604482015266726f706572747960c81b606482015260840160405180910390fd5b600060646004543461024991906104f7565b61025391906104d7565b6003546040519192506001600160a01b03169082156108fc029083906000818181858888f1935050505015801561028e573d6000803e3d6000fd5b5060038201546001600160a01b03166108fc6102aa8334610516565b6040518115909202916000818181858888f193505050501580156102d2573d6000803e3d6000fd5b506003820180546001600160a01b031916339081179091558254600184015460408051928352602083019190915281019190915283907f8abcdce58596b4d61c907607c0ab110e35120b67d638ab163e45e5e34d49de619060600160405180910390a2505050565b600080823360405160200161036b92919091825260601b6bffffffffffffffffffffffff1916602082015260340190565b6040516020818303038152906040528051906020012090506000600260008154809291906103989061052d565b90915550604080516080808201835283825260208083018a81528385018a815233606080870182815260008c81528087528981209851895594516001808a01919091559351600289015551600390970180546001600160a01b0319166001600160a01b03909816979097179096558783529083529085902088905584518681529182018b90529381018990529182019290925291925083917f6ee9556c992d895d0bf3c4083abd6b6ca6ab7d0c42a6b9a29453ab373d7b86bb910160405180910390a27f562527f0d896721dc453544146379b919816573c35ca10b4a7c3709aa757162260025460405161048e91815260200190565b60405180910390a1509392505050565b6000602082840312156104af578081fd5b5035919050565b600080604083850312156104c8578081fd5b50508035926020909101359150565b6000826104f257634e487b7160e01b81526012600452602481fd5b500490565b600081600019048311821515161561051157610511610548565b500290565b60008282101561052857610528610548565b500390565b600060001982141561054157610541610548565b5060010190565b634e487b7160e01b600052601160045260246000fdfea26469706673582212206f360b49eb7fb3c014a8df5201fc6301b14210bcdac0d97fdfce288baa319bcd64736f6c63430008040033",
  "immutableReferences": {},
  "source": "// SPDX-License-Identifier: MIT\npragma solidity ^0.8.4;\n\ncontract PropertyMarketplace {\n\n    struct Propertie {\n        uint id;\n        uint price;\n        bytes32 proof;\n        address owner;\n    }\n\n    mapping(bytes32 => Propertie) private ownedPropiedad;\n    mapping(uint => bytes32) private ownedPropiedadHash;\n\n    uint private totalOwnedPropiedad;\n    address private platformOwner;\n    uint public platformCommissionPercentage;\n\n    event PropertiePurchased(bytes32 indexed propertyHash, uint id, uint price, address owner);\n    event PropertieCreated(bytes32 indexed propertyHash, uint id, uint price, bytes32 proof, address owner);\n    event PropertieCountUpdated(uint totalOwnedPropiedad);\n\n    constructor(uint _platformCommissionPercentage) {\n        platformOwner = msg.sender;\n        platformCommissionPercentage = _platformCommissionPercentage;\n    }\n\n    function createProperty(uint price, bytes32 proof) external returns (bytes32) {\n        bytes32 propertyHash = keccak256(abi.encodePacked(proof, msg.sender));\n\n        uint id = totalOwnedPropiedad++;\n        ownedPropiedad[propertyHash] = Propertie({\n            id: id,\n            price: price,\n            proof: proof,\n            owner: msg.sender\n        });\n\n        ownedPropiedadHash[id] = propertyHash;\n\n        emit PropertieCreated(propertyHash, id, price, proof, msg.sender);\n        emit PropertieCountUpdated(totalOwnedPropiedad);\n\n        return propertyHash;\n    }\n\n    function comprarPropiedad(bytes32 propertyHash) external payable {\n        Propertie storage propiedad = ownedPropiedad[propertyHash];\n        require(msg.value >= propiedad.price, \"Insufficient funds to purchase property\");\n\n        uint totalCommission = (msg.value * platformCommissionPercentage) / 100;\n\n        payable(platformOwner).transfer(totalCommission);\n        payable(propiedad.owner).transfer(msg.value - totalCommission);\n\n        propiedad.owner = msg.sender;\n\n        emit PropertiePurchased(propertyHash, propiedad.id, propiedad.price, msg.sender);\n    }\n\n    function getPropertieCount() external view returns (uint) {\n        return totalOwnedPropiedad;\n    }\n\n    function getPropertieHashAtIndex(uint index) external view returns (bytes32) {\n        return ownedPropiedadHash[index];\n    }\n\n    function getPropertieByHash(bytes32 propertyHash) external view returns (Propertie memory) {\n        return ownedPropiedad[propertyHash];\n    }\n}\n",
  "sourcePath": "C:\\blockchain\\recursos\\contract\\contracts\\PropertyMarketplace.sol",
  "compiler": {
    "name": "solc",
    "version": "0.8.4+commit.c7e474f2.Emscripten.clang"
  },
  "schemaVersion": "3.4.16",
  "updatedAt": "2024-06-28T16:48:02.026Z",
  "devdoc": {
    "kind": "dev",
    "methods": {},
    "version": 1
  },
  "userdoc": {
    "kind": "user",
    "methods": {},
    "version": 1
  }
}